{
  "_format": "hh-sol-artifact-1",
  "contractName": "multisig",
  "sourceName": "contracts/MultiSig.sol",
  "abi": [
    {
      "inputs": [],
      "stateMutability": "nonpayable",
      "type": "constructor"
    },
    {
      "anonymous": false,
      "inputs": [
        {
          "indexed": true,
          "internalType": "address",
          "name": "owner",
          "type": "address"
        },
        {
          "indexed": true,
          "internalType": "address",
          "name": "spender",
          "type": "address"
        },
        {
          "indexed": false,
          "internalType": "uint256",
          "name": "value",
          "type": "uint256"
        }
      ],
      "name": "Approval",
      "type": "event"
    },
    {
      "anonymous": false,
      "inputs": [
        {
          "indexed": false,
          "internalType": "address",
          "name": "from",
          "type": "address"
        },
        {
          "indexed": false,
          "internalType": "uint256",
          "name": "amount",
          "type": "uint256"
        },
        {
          "indexed": false,
          "internalType": "uint256",
          "name": "index",
          "type": "uint256"
        }
      ],
      "name": "funds_deposited",
      "type": "event"
    },
    {
      "anonymous": false,
      "inputs": [
        {
          "indexed": false,
          "internalType": "address",
          "name": "from",
          "type": "address"
        },
        {
          "indexed": false,
          "internalType": "uint256",
          "name": "amount",
          "type": "uint256"
        },
        {
          "indexed": false,
          "internalType": "uint256",
          "name": "index",
          "type": "uint256"
        }
      ],
      "name": "funds_withdrawd",
      "type": "event"
    },
    {
      "anonymous": false,
      "inputs": [
        {
          "indexed": false,
          "internalType": "address",
          "name": "sender",
          "type": "address"
        },
        {
          "indexed": false,
          "internalType": "address",
          "name": "receiver",
          "type": "address"
        },
        {
          "indexed": false,
          "internalType": "uint256",
          "name": "amount",
          "type": "uint256"
        },
        {
          "indexed": false,
          "internalType": "uint256",
          "name": "id",
          "type": "uint256"
        },
        {
          "indexed": false,
          "internalType": "uint256",
          "name": "approval",
          "type": "uint256"
        },
        {
          "indexed": false,
          "internalType": "uint256",
          "name": "timestamp",
          "type": "uint256"
        }
      ],
      "name": "tranfer_created",
      "type": "event"
    },
    {
      "anonymous": false,
      "inputs": [
        {
          "indexed": false,
          "internalType": "address",
          "name": "addedyBy",
          "type": "address"
        },
        {
          "indexed": false,
          "internalType": "address",
          "name": "newOwner",
          "type": "address"
        },
        {
          "indexed": false,
          "internalType": "uint256",
          "name": "approvalCount",
          "type": "uint256"
        },
        {
          "indexed": false,
          "internalType": "uint256",
          "name": "index",
          "type": "uint256"
        }
      ],
      "name": "wallet_ownerAdded",
      "type": "event"
    },
    {
      "anonymous": false,
      "inputs": [
        {
          "indexed": false,
          "internalType": "address",
          "name": "removedBy",
          "type": "address"
        },
        {
          "indexed": false,
          "internalType": "address",
          "name": "owner_removed",
          "type": "address"
        },
        {
          "indexed": false,
          "internalType": "uint256",
          "name": "index",
          "type": "uint256"
        }
      ],
      "name": "wallet_ownerRemoved",
      "type": "event"
    },
    {
      "inputs": [
        {
          "internalType": "address",
          "name": "owner",
          "type": "address"
        },
        {
          "internalType": "uint256",
          "name": "approvalCount",
          "type": "uint256"
        }
      ],
      "name": "addOwner",
      "outputs": [],
      "stateMutability": "nonpayable",
      "type": "function"
    },
    {
      "inputs": [
        {
          "internalType": "address",
          "name": "owner",
          "type": "address"
        },
        {
          "internalType": "address",
          "name": "spender",
          "type": "address"
        }
      ],
      "name": "allowance",
      "outputs": [
        {
          "internalType": "uint256",
          "name": "",
          "type": "uint256"
        }
      ],
      "stateMutability": "view",
      "type": "function"
    },
    {
      "inputs": [
        {
          "internalType": "address",
          "name": "owner",
          "type": "address"
        },
        {
          "internalType": "address",
          "name": "spender",
          "type": "address"
        },
        {
          "internalType": "uint256",
          "name": "amount",
          "type": "uint256"
        }
      ],
      "name": "approve",
      "outputs": [
        {
          "internalType": "bool",
          "name": "",
          "type": "bool"
        }
      ],
      "stateMutability": "nonpayable",
      "type": "function"
    },
    {
      "inputs": [
        {
          "internalType": "uint256",
          "name": "id",
          "type": "uint256"
        }
      ],
      "name": "cancelTransfer",
      "outputs": [],
      "stateMutability": "view",
      "type": "function"
    },
    {
      "inputs": [
        {
          "internalType": "address",
          "name": "receiver",
          "type": "address"
        },
        {
          "internalType": "uint256",
          "name": "amount",
          "type": "uint256"
        }
      ],
      "name": "createTransaction",
      "outputs": [],
      "stateMutability": "nonpayable",
      "type": "function"
    },
    {
      "inputs": [
        {
          "internalType": "address",
          "name": "owner",
          "type": "address"
        }
      ],
      "name": "delOwner",
      "outputs": [],
      "stateMutability": "nonpayable",
      "type": "function"
    },
    {
      "inputs": [
        {
          "internalType": "uint256",
          "name": "amount",
          "type": "uint256"
        }
      ],
      "name": "deposit",
      "outputs": [],
      "stateMutability": "payable",
      "type": "function"
    },
    {
      "inputs": [],
      "name": "devData",
      "outputs": [
        {
          "internalType": "address",
          "name": "owner",
          "type": "address"
        },
        {
          "internalType": "bool",
          "name": "create",
          "type": "bool"
        }
      ],
      "stateMutability": "view",
      "type": "function"
    },
    {
      "inputs": [],
      "name": "getContractBalance",
      "outputs": [
        {
          "internalType": "uint256",
          "name": "",
          "type": "uint256"
        }
      ],
      "stateMutability": "view",
      "type": "function"
    },
    {
      "inputs": [],
      "name": "getWalletOwner",
      "outputs": [
        {
          "internalType": "address[]",
          "name": "",
          "type": "address[]"
        }
      ],
      "stateMutability": "view",
      "type": "function"
    },
    {
      "inputs": [],
      "name": "getbalance",
      "outputs": [
        {
          "internalType": "uint256",
          "name": "",
          "type": "uint256"
        }
      ],
      "stateMutability": "view",
      "type": "function"
    },
    {
      "inputs": [
        {
          "internalType": "uint256",
          "name": "",
          "type": "uint256"
        }
      ],
      "name": "newAccounts",
      "outputs": [
        {
          "internalType": "address",
          "name": "owner",
          "type": "address"
        },
        {
          "internalType": "bool",
          "name": "create",
          "type": "bool"
        }
      ],
      "stateMutability": "view",
      "type": "function"
    },
    {
      "inputs": [
        {
          "internalType": "uint256",
          "name": "amount",
          "type": "uint256"
        }
      ],
      "name": "withdraw",
      "outputs": [],
      "stateMutability": "nonpayable",
      "type": "function"
    }
  ],
  "bytecode": "0x6080604052600060025534801561001557600080fd5b50604051806040016040528060008054906101000a900473ffffffffffffffffffffffffffffffffffffffff1673ffffffffffffffffffffffffffffffffffffffff16815260200160011515815250600860008201518160000160006101000a81548173ffffffffffffffffffffffffffffffffffffffff021916908373ffffffffffffffffffffffffffffffffffffffff16021790555060208201518160000160146101000a81548160ff02191690831515021790555090505060076008908060018154018082558091505060019003906000526020600020016000909190919091506000820160009054906101000a900473ffffffffffffffffffffffffffffffffffffffff168160000160006101000a81548173ffffffffffffffffffffffffffffffffffffffff021916908373ffffffffffffffffffffffffffffffffffffffff1602179055506000820160149054906101000a900460ff168160000160146101000a81548160ff02191690831515021790555050506001339080600181540180825580915050600190039060005260206000200160009091909190916101000a81548173ffffffffffffffffffffffffffffffffffffffff021916908373ffffffffffffffffffffffffffffffffffffffff1602179055506125a4806102016000396000f3fe6080604052600436106100c25760003560e01c8063739841881161007f578063c245b74311610059578063c245b74314610231578063dd62ed3e1461026f578063de0deda8146102ac578063e1f21c67146102d8576100c2565b806373984188146101c1578063755765ab146101ea578063b6b55f2514610215576100c2565b80631e7f8f0f146100c75780632e1a7d4d146100f05780633cc38f5c146101195780634d9b3d5d1461014257806359caecb51461016d5780636f9fb98a14610196575b600080fd5b3480156100d357600080fd5b506100ee60048036038101906100e99190611ad5565b610315565b005b3480156100fc57600080fd5b5061011760048036038101906101129190611b11565b6106b3565b005b34801561012557600080fd5b50610140600480360381019061013b9190611ad5565b61099a565b005b34801561014e57600080fd5b50610157610c53565b60405161016491906120dc565b60405180910390f35b34801561017957600080fd5b50610194600480360381019061018f9190611b11565b610c9a565b005b3480156101a257600080fd5b506101ab610f6d565b6040516101b891906120dc565b60405180910390f35b3480156101cd57600080fd5b506101e860048036038101906101e39190611a21565b610f75565b005b3480156101f657600080fd5b506101ff61133b565b60405161020c9190611eff565b60405180910390f35b61022f600480360381019061022a9190611b11565b6113c9565b005b34801561023d57600080fd5b5061025860048036038101906102539190611b11565b611702565b604051610266929190611e9f565b60405180910390f35b34801561027b57600080fd5b5061029660048036038101906102919190611a4a565b61175f565b6040516102a391906120dc565b60405180910390f35b3480156102b857600080fd5b506102c16117e6565b6040516102cf929190611e9f565b60405180910390f35b3480156102e457600080fd5b506102ff60048036038101906102fa9190611a86565b611825565b60405161030c9190611f21565b60405180910390f35b6000805b6001805490508110156103da573373ffffffffffffffffffffffffffffffffffffffff1660018281548110610377577f4e487b7100000000000000000000000000000000000000000000000000000000600052603260045260246000fd5b9060005260206000200160009054906101000a900473ffffffffffffffffffffffffffffffffffffffff1673ffffffffffffffffffffffffffffffffffffffff1614156103c757600191506103da565b80806103d2906121cf565b915050610319565b506001151581151514610422576040517f08c379a000000000000000000000000000000000000000000000000000000000815260040161041990611fdc565b60405180910390fd5b8273ffffffffffffffffffffffffffffffffffffffff163373ffffffffffffffffffffffffffffffffffffffff161415610491576040517f08c379a00000000000000000000000000000000000000000000000000000000081526004016104889061205c565b60405180910390fd5b81600460003373ffffffffffffffffffffffffffffffffffffffff1673ffffffffffffffffffffffffffffffffffffffff168152602001908152602001600020541015610513576040517f08c379a000000000000000000000000000000000000000000000000000000000815260040161050a90611fbc565b60405180910390fd5b60066040518060c001604052803373ffffffffffffffffffffffffffffffffffffffff1681526020018573ffffffffffffffffffffffffffffffffffffffff16815260200184815260200160025481526020016000815260200142815250908060018154018082558091505060019003906000526020600020906006020160009091909190915060008201518160000160006101000a81548173ffffffffffffffffffffffffffffffffffffffff021916908373ffffffffffffffffffffffffffffffffffffffff16021790555060208201518160010160006101000a81548173ffffffffffffffffffffffffffffffffffffffff021916908373ffffffffffffffffffffffffffffffffffffffff16021790555060408201518160020155606082015181600301556080820151816004015560a08201518160050155505060026000815480929190610665906121cf565b91905055507f5ff3e472ba185501cb0edc31da0a7169f5bc104d84a6cdb58b780b5f1a5eeeec3384846002546000426040516106a696959493929190611e3e565b60405180910390a1505050565b6000805b600180549050811015610778573373ffffffffffffffffffffffffffffffffffffffff1660018281548110610715577f4e487b7100000000000000000000000000000000000000000000000000000000600052603260045260246000fd5b9060005260206000200160009054906101000a900473ffffffffffffffffffffffffffffffffffffffff1673ffffffffffffffffffffffffffffffffffffffff1614156107655760019150610778565b8080610770906121cf565b9150506106b7565b5060011515811515146107c0576040517f08c379a00000000000000000000000000000000000000000000000000000000081526004016107b790611fdc565b60405180910390fd5b60008211610803576040517f08c379a00000000000000000000000000000000000000000000000000000000081526004016107fa9061203c565b60405180910390fd5b6000600460003373ffffffffffffffffffffffffffffffffffffffff1673ffffffffffffffffffffffffffffffffffffffff168152602001908152602001600020541015610886576040517f08c379a000000000000000000000000000000000000000000000000000000000815260040161087d90611fbc565b60405180910390fd5b81600460003373ffffffffffffffffffffffffffffffffffffffff1673ffffffffffffffffffffffffffffffffffffffff168152602001908152602001600020546108d19190612141565b600460003373ffffffffffffffffffffffffffffffffffffffff1673ffffffffffffffffffffffffffffffffffffffff168152602001908152602001600020819055503373ffffffffffffffffffffffffffffffffffffffff166108fc839081150290604051600060405180830381858888f1935050505015801561095a573d6000803e3d6000fd5b507f3362d6ef7884fb56653be076b2f9a0f5a1bd8cb8accc6fda15c1728a3280316833834260405161098e93929190611ec8565b60405180910390a15050565b6000805b600180549050811015610a5f573373ffffffffffffffffffffffffffffffffffffffff16600182815481106109fc577f4e487b7100000000000000000000000000000000000000000000000000000000600052603260045260246000fd5b9060005260206000200160009054906101000a900473ffffffffffffffffffffffffffffffffffffffff1673ffffffffffffffffffffffffffffffffffffffff161415610a4c5760019150610a5f565b8080610a57906121cf565b91505061099e565b506001151581151514610aa7576040517f08c379a0000000000000000000000000000000000000000000000000000000008152600401610a9e90611fdc565b60405180910390fd5b60005b600180549050811015610b9d578373ffffffffffffffffffffffffffffffffffffffff1660018281548110610b08577f4e487b7100000000000000000000000000000000000000000000000000000000600052603260045260246000fd5b9060005260206000200160009054906101000a900473ffffffffffffffffffffffffffffffffffffffff1673ffffffffffffffffffffffffffffffffffffffff161415610b8a576040517f08c379a0000000000000000000000000000000000000000000000000000000008152600401610b8190611f9c565b60405180910390fd5b8080610b95906121cf565b915050610aaa565b506001839080600181540180825580915050600190039060005260206000200160009091909190916101000a81548173ffffffffffffffffffffffffffffffffffffffff021916908373ffffffffffffffffffffffffffffffffffffffff1602179055507f1c0ad7b96f282e3c07eb2e1e15d329f3bdad43a346aac4a66b80c9cce1f2f94233848460018080549050610c369190612141565b604051610c469493929190611df9565b60405180910390a1505050565b6000600460003373ffffffffffffffffffffffffffffffffffffffff1673ffffffffffffffffffffffffffffffffffffffff16815260200190815260200160002054905090565b6000805b600180549050811015610d5f573373ffffffffffffffffffffffffffffffffffffffff1660018281548110610cfc577f4e487b7100000000000000000000000000000000000000000000000000000000600052603260045260246000fd5b9060005260206000200160009054906101000a900473ffffffffffffffffffffffffffffffffffffffff1673ffffffffffffffffffffffffffffffffffffffff161415610d4c5760019150610d5f565b8080610d57906121cf565b915050610c9e565b506001151581151514610da7576040517f08c379a0000000000000000000000000000000000000000000000000000000008152600401610d9e90611fdc565b60405180910390fd5b60008060005b6001600680549050610dbf9190612141565b811015610e46578460068281548110610e01577f4e487b7100000000000000000000000000000000000000000000000000000000600052603260045260246000fd5b9060005260206000209060060201600301541415610e255760019250809150610e46565b8180610e30906121cf565b9250508080610e3e906121cf565b915050610dad565b506001151582151514610e8e576040517f08c379a0000000000000000000000000000000000000000000000000000000008152600401610e85906120bc565b60405180910390fd5b60068181548110610ec8577f4e487b7100000000000000000000000000000000000000000000000000000000600052603260045260246000fd5b906000526020600020906006020160000160009054906101000a900473ffffffffffffffffffffffffffffffffffffffff1673ffffffffffffffffffffffffffffffffffffffff163373ffffffffffffffffffffffffffffffffffffffff1614610f67576040517f08c379a0000000000000000000000000000000000000000000000000000000008152600401610f5e9061209c565b60405180910390fd5b50505050565b600047905090565b6000805b60018054905081101561103a573373ffffffffffffffffffffffffffffffffffffffff1660018281548110610fd7577f4e487b7100000000000000000000000000000000000000000000000000000000600052603260045260246000fd5b9060005260206000200160009054906101000a900473ffffffffffffffffffffffffffffffffffffffff1673ffffffffffffffffffffffffffffffffffffffff161415611027576001915061103a565b8080611032906121cf565b915050610f79565b506001151581151514611082576040517f08c379a000000000000000000000000000000000000000000000000000000000815260040161107990611fdc565b60405180910390fd5b60008080600090505b60018054905081101561114f578473ffffffffffffffffffffffffffffffffffffffff16600182815481106110e9577f4e487b7100000000000000000000000000000000000000000000000000000000600052603260045260246000fd5b9060005260206000200160009054906101000a900473ffffffffffffffffffffffffffffffffffffffff1673ffffffffffffffffffffffffffffffffffffffff16141561113c576001925080915061114f565b8080611147906121cf565b91505061108b565b506001151582151514611197576040517f08c379a000000000000000000000000000000000000000000000000000000000815260040161118e9061201c565b60405180910390fd5b60018080805490506111a99190612141565b815481106111e0577f4e487b7100000000000000000000000000000000000000000000000000000000600052603260045260246000fd5b9060005260206000200160009054906101000a900473ffffffffffffffffffffffffffffffffffffffff1660018281548110611245577f4e487b7100000000000000000000000000000000000000000000000000000000600052603260045260246000fd5b9060005260206000200160006101000a81548173ffffffffffffffffffffffffffffffffffffffff021916908373ffffffffffffffffffffffffffffffffffffffff16021790555060018054806112c5577f4e487b7100000000000000000000000000000000000000000000000000000000600052603160045260246000fd5b6001900381819060005260206000200160006101000a81549073ffffffffffffffffffffffffffffffffffffffff021916905590557fb2fc7bd05555890bb159a1291438a5bfc02a5051e052be42ba90c859f1c4817433854260405161132d93929190611dc2565b60405180910390a150505050565b606060018054806020026020016040519081016040528092919081815260200182805480156113bf57602002820191906000526020600020905b8160009054906101000a900473ffffffffffffffffffffffffffffffffffffffff1673ffffffffffffffffffffffffffffffffffffffff1681526020019060010190808311611375575b5050505050905090565b6000805b60018054905081101561148e573373ffffffffffffffffffffffffffffffffffffffff166001828154811061142b577f4e487b7100000000000000000000000000000000000000000000000000000000600052603260045260246000fd5b9060005260206000200160009054906101000a900473ffffffffffffffffffffffffffffffffffffffff1673ffffffffffffffffffffffffffffffffffffffff16141561147b576001915061148e565b8080611486906121cf565b9150506113cd565b5060011515811515146114d6576040517f08c379a00000000000000000000000000000000000000000000000000000000081526004016114cd90611fdc565b60405180910390fd5b81341015611519576040517f08c379a000000000000000000000000000000000000000000000000000000000815260040161151090611f3c565b60405180910390fd5b6000821161155c576040517f08c379a000000000000000000000000000000000000000000000000000000000815260040161155390611ffc565b60405180910390fd5b662386f26fc10000341161156f57600080fd5b60008054906101000a900473ffffffffffffffffffffffffffffffffffffffff1673ffffffffffffffffffffffffffffffffffffffff163373ffffffffffffffffffffffffffffffffffffffff16146115fd576040517f08c379a00000000000000000000000000000000000000000000000000000000081526004016115f490611f7c565b60405180910390fd5b34600460003373ffffffffffffffffffffffffffffffffffffffff1673ffffffffffffffffffffffffffffffffffffffff16815260200190815260200160002054101561167f576040517f08c379a000000000000000000000000000000000000000000000000000000000815260040161167690611fbc565b60405180910390fd5b34600460003373ffffffffffffffffffffffffffffffffffffffff1673ffffffffffffffffffffffffffffffffffffffff168152602001908152602001600020819055507fb66661433873fff328d8a2f5b7e257d68f7861f4b0d1677c55a796caa6c22abe3334426040516116f693929190611ec8565b60405180910390a15050565b6007818154811061171257600080fd5b906000526020600020016000915090508060000160009054906101000a900473ffffffffffffffffffffffffffffffffffffffff16908060000160149054906101000a900460ff16905082565b6000600560008473ffffffffffffffffffffffffffffffffffffffff1673ffffffffffffffffffffffffffffffffffffffff16815260200190815260200160002060008373ffffffffffffffffffffffffffffffffffffffff1673ffffffffffffffffffffffffffffffffffffffff16815260200190815260200160002054905092915050565b60088060000160009054906101000a900473ffffffffffffffffffffffffffffffffffffffff16908060000160149054906101000a900460ff16905082565b60008073ffffffffffffffffffffffffffffffffffffffff168473ffffffffffffffffffffffffffffffffffffffff161415611896576040517f08c379a000000000000000000000000000000000000000000000000000000000815260040161188d9061207c565b60405180910390fd5b600073ffffffffffffffffffffffffffffffffffffffff168373ffffffffffffffffffffffffffffffffffffffff161415611906576040517f08c379a00000000000000000000000000000000000000000000000000000000081526004016118fd90611f5c565b60405180910390fd5b81600560008673ffffffffffffffffffffffffffffffffffffffff1673ffffffffffffffffffffffffffffffffffffffff16815260200190815260200160002060008573ffffffffffffffffffffffffffffffffffffffff1673ffffffffffffffffffffffffffffffffffffffff168152602001908152602001600020819055508273ffffffffffffffffffffffffffffffffffffffff168473ffffffffffffffffffffffffffffffffffffffff167f8c5be1e5ebec7d5bd14f71427d1e84f3dd0314c0f7b2291e5b200ac8c7c3b925846040516119e491906120dc565b60405180910390a3600190509392505050565b600081359050611a0681612540565b92915050565b600081359050611a1b81612557565b92915050565b600060208284031215611a3357600080fd5b6000611a41848285016119f7565b91505092915050565b60008060408385031215611a5d57600080fd5b6000611a6b858286016119f7565b9250506020611a7c858286016119f7565b9150509250929050565b600080600060608486031215611a9b57600080fd5b6000611aa9868287016119f7565b9350506020611aba868287016119f7565b9250506040611acb86828701611a0c565b9150509250925092565b60008060408385031215611ae857600080fd5b6000611af6858286016119f7565b9250506020611b0785828601611a0c565b9150509250929050565b600060208284031215611b2357600080fd5b6000611b3184828501611a0c565b91505092915050565b6000611b468383611b52565b60208301905092915050565b611b5b81612175565b82525050565b611b6a81612175565b82525050565b6000611b7b82612107565b611b85818561211f565b9350611b90836120f7565b8060005b83811015611bc1578151611ba88882611b3a565b9750611bb383612112565b925050600181019050611b94565b5085935050505092915050565b611bd781612187565b82525050565b611be6816121bd565b82525050565b6000611bf9603a83612130565b9150611c0482612247565b604082019050919050565b6000611c1c602283612130565b9150611c2782612296565b604082019050919050565b6000611c3f601b83612130565b9150611c4a826122e5565b602082019050919050565b6000611c62601a83612130565b9150611c6d8261230e565b602082019050919050565b6000611c85601483612130565b9150611c9082612337565b602082019050919050565b6000611ca8602583612130565b9150611cb382612360565b604082019050919050565b6000611ccb602583612130565b9150611cd6826123af565b604082019050919050565b6000611cee601383612130565b9150611cf9826123fe565b602082019050919050565b6000611d11602683612130565b9150611d1c82612427565b604082019050919050565b6000611d34600883612130565b9150611d3f82612476565b602082019050919050565b6000611d57602483612130565b9150611d628261249f565b604082019050919050565b6000611d7a601f83612130565b9150611d85826124ee565b602082019050919050565b6000611d9d601283612130565b9150611da882612517565b602082019050919050565b611dbc816121b3565b82525050565b6000606082019050611dd76000830186611b61565b611de46020830185611b61565b611df16040830184611db3565b949350505050565b6000608082019050611e0e6000830187611b61565b611e1b6020830186611b61565b611e286040830185611db3565b611e356060830184611db3565b95945050505050565b600060c082019050611e536000830189611b61565b611e606020830188611b61565b611e6d6040830187611db3565b611e7a6060830186611db3565b611e876080830185611bdd565b611e9460a0830184611db3565b979650505050505050565b6000604082019050611eb46000830185611b61565b611ec16020830184611bce565b9392505050565b6000606082019050611edd6000830186611b61565b611eea6020830185611db3565b611ef76040830184611db3565b949350505050565b60006020820190508181036000830152611f198184611b70565b905092915050565b6000602082019050611f366000830184611bce565b92915050565b60006020820190508181036000830152611f5581611bec565b9050919050565b60006020820190508181036000830152611f7581611c0f565b9050919050565b60006020820190508181036000830152611f9581611c32565b9050919050565b60006020820190508181036000830152611fb581611c55565b9050919050565b60006020820190508181036000830152611fd581611c78565b9050919050565b60006020820190508181036000830152611ff581611c9b565b9050919050565b6000602082019050818103600083015261201581611cbe565b9050919050565b6000602082019050818103600083015261203581611ce1565b9050919050565b6000602082019050818103600083015261205581611d04565b9050919050565b6000602082019050818103600083015261207581611d27565b9050919050565b6000602082019050818103600083015261209581611d4a565b9050919050565b600060208201905081810360008301526120b581611d6d565b9050919050565b600060208201905081810360008301526120d581611d90565b9050919050565b60006020820190506120f16000830184611db3565b92915050565b6000819050602082019050919050565b600081519050919050565b6000602082019050919050565b600082825260208201905092915050565b600082825260208201905092915050565b600061214c826121b3565b9150612157836121b3565b92508282101561216a57612169612218565b5b828203905092915050565b600061218082612193565b9050919050565b60008115159050919050565b600073ffffffffffffffffffffffffffffffffffffffff82169050919050565b6000819050919050565b60006121c8826121b3565b9050919050565b60006121da826121b3565b91507fffffffffffffffffffffffffffffffffffffffffffffffffffffffffffffffff82141561220d5761220c612218565b5b600182019050919050565b7f4e487b7100000000000000000000000000000000000000000000000000000000600052601160045260246000fd5b7f6465706f73697420616d6f756e74206d7573742062652067726561746572207460008201527f68616e206f7220657175616c20746f2074686520616d6f756e74000000000000602082015250565b7f45524332303a20617070726f766520746f20746865207a65726f20616464726560008201527f7373000000000000000000000000000000000000000000000000000000000000602082015250565b7f6f6e6c79206d61696e206f776e65722063616e206465706f7369740000000000600082015250565b7f63616e6e6f7420616464206475706c6963617465206f776e6572000000000000600082015250565b7f696e73756666696369656e742062616c616e6365000000000000000000000000600082015250565b7f6f6e6c792077616c6c6574206f776e6572732063616c6c20746869732066756e60008201527f6374696f6e000000000000000000000000000000000000000000000000000000602082015250565b7f6465706f73697420616d6f756e74206d7573742062652067726561746572207460008201527f68616e2030000000000000000000000000000000000000000000000000000000602082015250565b7f206f776e6572206e6f7420646574656374656400000000000000000000000000600082015250565b7f776974686472617720616d6f756e74206d75737420626520677265617465722060008201527f7468616e20300000000000000000000000000000000000000000000000000000602082015250565b7f6e6f206672617564000000000000000000000000000000000000000000000000600082015250565b7f45524332303a20617070726f76652066726f6d20746865207a65726f2061646460008201527f7265737300000000000000000000000000000000000000000000000000000000602082015250565b7f6f6e6c792073656e6465722063616e2063616e63656c207472616e7366657200600082015250565b7f7472616e73666572206e6f7420666f756e640000000000000000000000000000600082015250565b61254981612175565b811461255457600080fd5b50565b612560816121b3565b811461256b57600080fd5b5056fea26469706673582212200c80cf8ea1136919b3f613eaedc90d9ff77e10a90821575f39aa162be46040f164736f6c63430008040033",
  "linkReferences": {},
  "deployedLinkReferences": {}
}