{
  "contractName": "multisig",
  "abi": [
    {
      "inputs": [],
      "stateMutability": "nonpayable",
      "type": "constructor"
    },
    {
      "anonymous": false,
      "inputs": [
        {
          "indexed": true,
          "internalType": "address",
          "name": "owner",
          "type": "address"
        },
        {
          "indexed": true,
          "internalType": "address",
          "name": "spender",
          "type": "address"
        },
        {
          "indexed": false,
          "internalType": "uint256",
          "name": "value",
          "type": "uint256"
        }
      ],
      "name": "Approval",
      "type": "event"
    },
    {
      "anonymous": false,
      "inputs": [
        {
          "indexed": false,
          "internalType": "address",
          "name": "from",
          "type": "address"
        },
        {
          "indexed": false,
          "internalType": "uint256",
          "name": "amount",
          "type": "uint256"
        },
        {
          "indexed": false,
          "internalType": "uint256",
          "name": "index",
          "type": "uint256"
        }
      ],
      "name": "funds_deposited",
      "type": "event"
    },
    {
      "anonymous": false,
      "inputs": [
        {
          "indexed": false,
          "internalType": "address",
          "name": "from",
          "type": "address"
        },
        {
          "indexed": false,
          "internalType": "uint256",
          "name": "amount",
          "type": "uint256"
        },
        {
          "indexed": false,
          "internalType": "uint256",
          "name": "index",
          "type": "uint256"
        }
      ],
      "name": "funds_withdrawd",
      "type": "event"
    },
    {
      "anonymous": false,
      "inputs": [
        {
          "indexed": false,
          "internalType": "address",
          "name": "sender",
          "type": "address"
        },
        {
          "indexed": false,
          "internalType": "address",
          "name": "receiver",
          "type": "address"
        },
        {
          "indexed": false,
          "internalType": "uint256",
          "name": "amount",
          "type": "uint256"
        },
        {
          "indexed": false,
          "internalType": "uint256",
          "name": "id",
          "type": "uint256"
        },
        {
          "indexed": false,
          "internalType": "uint256",
          "name": "approval",
          "type": "uint256"
        },
        {
          "indexed": false,
          "internalType": "uint256",
          "name": "timestamp",
          "type": "uint256"
        }
      ],
      "name": "tranfer_created",
      "type": "event"
    },
    {
      "anonymous": false,
      "inputs": [
        {
          "indexed": false,
          "internalType": "address",
          "name": "addedyBy",
          "type": "address"
        },
        {
          "indexed": false,
          "internalType": "address",
          "name": "newOwner",
          "type": "address"
        },
        {
          "indexed": false,
          "internalType": "uint256",
          "name": "approvalCount",
          "type": "uint256"
        },
        {
          "indexed": false,
          "internalType": "uint256",
          "name": "index",
          "type": "uint256"
        }
      ],
      "name": "wallet_ownerAdded",
      "type": "event"
    },
    {
      "anonymous": false,
      "inputs": [
        {
          "indexed": false,
          "internalType": "address",
          "name": "removedBy",
          "type": "address"
        },
        {
          "indexed": false,
          "internalType": "address",
          "name": "owner_removed",
          "type": "address"
        },
        {
          "indexed": false,
          "internalType": "uint256",
          "name": "index",
          "type": "uint256"
        }
      ],
      "name": "wallet_ownerRemoved",
      "type": "event"
    },
    {
      "inputs": [],
      "name": "devData",
      "outputs": [
        {
          "internalType": "address",
          "name": "owner",
          "type": "address"
        },
        {
          "internalType": "bool",
          "name": "create",
          "type": "bool"
        }
      ],
      "stateMutability": "view",
      "type": "function",
      "constant": true
    },
    {
      "inputs": [
        {
          "internalType": "uint256",
          "name": "",
          "type": "uint256"
        }
      ],
      "name": "newAccounts",
      "outputs": [
        {
          "internalType": "address",
          "name": "owner",
          "type": "address"
        },
        {
          "internalType": "bool",
          "name": "create",
          "type": "bool"
        }
      ],
      "stateMutability": "view",
      "type": "function",
      "constant": true
    },
    {
      "inputs": [
        {
          "internalType": "address",
          "name": "owner",
          "type": "address"
        },
        {
          "internalType": "address",
          "name": "spender",
          "type": "address"
        }
      ],
      "name": "allowance",
      "outputs": [
        {
          "internalType": "uint256",
          "name": "",
          "type": "uint256"
        }
      ],
      "stateMutability": "view",
      "type": "function",
      "constant": true
    },
    {
      "inputs": [
        {
          "internalType": "address",
          "name": "owner",
          "type": "address"
        },
        {
          "internalType": "uint256",
          "name": "approvalCount",
          "type": "uint256"
        }
      ],
      "name": "addOwner",
      "outputs": [],
      "stateMutability": "nonpayable",
      "type": "function"
    },
    {
      "inputs": [
        {
          "internalType": "address",
          "name": "owner",
          "type": "address"
        }
      ],
      "name": "delOwner",
      "outputs": [],
      "stateMutability": "nonpayable",
      "type": "function"
    },
    {
      "inputs": [
        {
          "internalType": "uint256",
          "name": "amount",
          "type": "uint256"
        }
      ],
      "name": "deposit",
      "outputs": [],
      "stateMutability": "payable",
      "type": "function",
      "payable": true
    },
    {
      "inputs": [
        {
          "internalType": "uint256",
          "name": "amount",
          "type": "uint256"
        }
      ],
      "name": "withdraw",
      "outputs": [],
      "stateMutability": "nonpayable",
      "type": "function"
    },
    {
      "inputs": [
        {
          "internalType": "address",
          "name": "receiver",
          "type": "address"
        },
        {
          "internalType": "uint256",
          "name": "amount",
          "type": "uint256"
        }
      ],
      "name": "createTransaction",
      "outputs": [],
      "stateMutability": "nonpayable",
      "type": "function"
    },
    {
      "inputs": [],
      "name": "getbalance",
      "outputs": [
        {
          "internalType": "uint256",
          "name": "",
          "type": "uint256"
        }
      ],
      "stateMutability": "view",
      "type": "function",
      "constant": true
    },
    {
      "inputs": [
        {
          "internalType": "address",
          "name": "owner",
          "type": "address"
        },
        {
          "internalType": "address",
          "name": "spender",
          "type": "address"
        },
        {
          "internalType": "uint256",
          "name": "amount",
          "type": "uint256"
        }
      ],
      "name": "approve",
      "outputs": [
        {
          "internalType": "bool",
          "name": "",
          "type": "bool"
        }
      ],
      "stateMutability": "nonpayable",
      "type": "function"
    },
    {
      "inputs": [
        {
          "internalType": "uint256",
          "name": "id",
          "type": "uint256"
        }
      ],
      "name": "cancelTransfer",
      "outputs": [],
      "stateMutability": "view",
      "type": "function",
      "constant": true
    },
    {
      "inputs": [],
      "name": "getWalletOwner",
      "outputs": [
        {
          "internalType": "address[]",
          "name": "",
          "type": "address[]"
        }
      ],
      "stateMutability": "view",
      "type": "function",
      "constant": true
    },
    {
      "inputs": [],
      "name": "getContractBalance",
      "outputs": [
        {
          "internalType": "uint256",
          "name": "",
          "type": "uint256"
        }
      ],
      "stateMutability": "view",
      "type": "function",
      "constant": true
    }
  ],
  "bytecode": "0x6080604052600060025534801561001557600080fd5b50604051806040016040528060008054906101000a900473ffffffffffffffffffffffffffffffffffffffff1673ffffffffffffffffffffffffffffffffffffffff16815260200160011515815250600860008201518160000160006101000a81548173ffffffffffffffffffffffffffffffffffffffff021916908373ffffffffffffffffffffffffffffffffffffffff16021790555060208201518160000160146101000a81548160ff02191690831515021790555090505060076008908060018154018082558091505060019003906000526020600020016000909190919091506000820160009054906101000a900473ffffffffffffffffffffffffffffffffffffffff168160000160006101000a81548173ffffffffffffffffffffffffffffffffffffffff021916908373ffffffffffffffffffffffffffffffffffffffff1602179055506000820160149054906101000a900460ff168160000160146101000a81548160ff02191690831515021790555050506001339080600181540180825580915050600190039060005260206000200160009091909190916101000a81548173ffffffffffffffffffffffffffffffffffffffff021916908373ffffffffffffffffffffffffffffffffffffffff160217905550612451806102016000396000f3fe6080604052600436106100c25760003560e01c8063739841881161007f578063c245b74311610059578063c245b74314610231578063dd62ed3e1461026f578063de0deda8146102ac578063e1f21c67146102d8576100c2565b806373984188146101c1578063755765ab146101ea578063b6b55f2514610215576100c2565b80631e7f8f0f146100c75780632e1a7d4d146100f05780633cc38f5c146101195780634d9b3d5d1461014257806359caecb51461016d5780636f9fb98a14610196575b600080fd5b3480156100d357600080fd5b506100ee60048036038101906100e991906118a2565b610315565b005b3480156100fc57600080fd5b50610117600480360381019061011291906118e2565b61068d565b005b34801561012557600080fd5b50610140600480360381019061013b91906118a2565b61094e565b005b34801561014e57600080fd5b50610157610bbb565b604051610164919061191e565b60405180910390f35b34801561017957600080fd5b50610194600480360381019061018f91906118e2565b610c02565b005b3480156101a257600080fd5b506101ab610e63565b6040516101b8919061191e565b60405180910390f35b3480156101cd57600080fd5b506101e860048036038101906101e39190611939565b610e6b565b005b3480156101f657600080fd5b506101ff611173565b60405161020c9190611a24565b60405180910390f35b61022f600480360381019061022a91906118e2565b611201565b005b34801561023d57600080fd5b50610258600480360381019061025391906118e2565b611514565b604051610266929190611a70565b60405180910390f35b34801561027b57600080fd5b5061029660048036038101906102919190611a99565b611571565b6040516102a3919061191e565b60405180910390f35b3480156102b857600080fd5b506102c16115f8565b6040516102cf929190611a70565b60405180910390f35b3480156102e457600080fd5b506102ff60048036038101906102fa9190611ad9565b611637565b60405161030c9190611b2c565b60405180910390f35b6000805b6001805490508110156103b4573373ffffffffffffffffffffffffffffffffffffffff166001828154811061035157610350611b47565b5b9060005260206000200160009054906101000a900473ffffffffffffffffffffffffffffffffffffffff1673ffffffffffffffffffffffffffffffffffffffff1614156103a157600191506103b4565b80806103ac90611ba5565b915050610319565b5060011515811515146103fc576040517f08c379a00000000000000000000000000000000000000000000000000000000081526004016103f390611c71565b60405180910390fd5b8273ffffffffffffffffffffffffffffffffffffffff163373ffffffffffffffffffffffffffffffffffffffff16141561046b576040517f08c379a000000000000000000000000000000000000000000000000000000000815260040161046290611cdd565b60405180910390fd5b81600460003373ffffffffffffffffffffffffffffffffffffffff1673ffffffffffffffffffffffffffffffffffffffff1681526020019081526020016000205410156104ed576040517f08c379a00000000000000000000000000000000000000000000000000000000081526004016104e490611d49565b60405180910390fd5b60066040518060c001604052803373ffffffffffffffffffffffffffffffffffffffff1681526020018573ffffffffffffffffffffffffffffffffffffffff16815260200184815260200160025481526020016000815260200142815250908060018154018082558091505060019003906000526020600020906006020160009091909190915060008201518160000160006101000a81548173ffffffffffffffffffffffffffffffffffffffff021916908373ffffffffffffffffffffffffffffffffffffffff16021790555060208201518160010160006101000a81548173ffffffffffffffffffffffffffffffffffffffff021916908373ffffffffffffffffffffffffffffffffffffffff16021790555060408201518160020155606082015181600301556080820151816004015560a0820151816005015550506002600081548092919061063f90611ba5565b91905055507f5ff3e472ba185501cb0edc31da0a7169f5bc104d84a6cdb58b780b5f1a5eeeec33848460025460004260405161068096959493929190611dae565b60405180910390a1505050565b6000805b60018054905081101561072c573373ffffffffffffffffffffffffffffffffffffffff16600182815481106106c9576106c8611b47565b5b9060005260206000200160009054906101000a900473ffffffffffffffffffffffffffffffffffffffff1673ffffffffffffffffffffffffffffffffffffffff161415610719576001915061072c565b808061072490611ba5565b915050610691565b506001151581151514610774576040517f08c379a000000000000000000000000000000000000000000000000000000000815260040161076b90611c71565b60405180910390fd5b600082116107b7576040517f08c379a00000000000000000000000000000000000000000000000000000000081526004016107ae90611e81565b60405180910390fd5b6000600460003373ffffffffffffffffffffffffffffffffffffffff1673ffffffffffffffffffffffffffffffffffffffff16815260200190815260200160002054101561083a576040517f08c379a000000000000000000000000000000000000000000000000000000000815260040161083190611d49565b60405180910390fd5b81600460003373ffffffffffffffffffffffffffffffffffffffff1673ffffffffffffffffffffffffffffffffffffffff168152602001908152602001600020546108859190611ea1565b600460003373ffffffffffffffffffffffffffffffffffffffff1673ffffffffffffffffffffffffffffffffffffffff168152602001908152602001600020819055503373ffffffffffffffffffffffffffffffffffffffff166108fc839081150290604051600060405180830381858888f1935050505015801561090e573d6000803e3d6000fd5b507f3362d6ef7884fb56653be076b2f9a0f5a1bd8cb8accc6fda15c1728a3280316833834260405161094293929190611ed5565b60405180910390a15050565b6000805b6001805490508110156109ed573373ffffffffffffffffffffffffffffffffffffffff166001828154811061098a57610989611b47565b5b9060005260206000200160009054906101000a900473ffffffffffffffffffffffffffffffffffffffff1673ffffffffffffffffffffffffffffffffffffffff1614156109da57600191506109ed565b80806109e590611ba5565b915050610952565b506001151581151514610a35576040517f08c379a0000000000000000000000000000000000000000000000000000000008152600401610a2c90611c71565b60405180910390fd5b60005b600180549050811015610b05578373ffffffffffffffffffffffffffffffffffffffff1660018281548110610a7057610a6f611b47565b5b9060005260206000200160009054906101000a900473ffffffffffffffffffffffffffffffffffffffff1673ffffffffffffffffffffffffffffffffffffffff161415610af2576040517f08c379a0000000000000000000000000000000000000000000000000000000008152600401610ae990611f58565b60405180910390fd5b8080610afd90611ba5565b915050610a38565b506001839080600181540180825580915050600190039060005260206000200160009091909190916101000a81548173ffffffffffffffffffffffffffffffffffffffff021916908373ffffffffffffffffffffffffffffffffffffffff1602179055507f1c0ad7b96f282e3c07eb2e1e15d329f3bdad43a346aac4a66b80c9cce1f2f94233848460018080549050610b9e9190611ea1565b604051610bae9493929190611f78565b60405180910390a1505050565b6000600460003373ffffffffffffffffffffffffffffffffffffffff1673ffffffffffffffffffffffffffffffffffffffff16815260200190815260200160002054905090565b6000805b600180549050811015610ca1573373ffffffffffffffffffffffffffffffffffffffff1660018281548110610c3e57610c3d611b47565b5b9060005260206000200160009054906101000a900473ffffffffffffffffffffffffffffffffffffffff1673ffffffffffffffffffffffffffffffffffffffff161415610c8e5760019150610ca1565b8080610c9990611ba5565b915050610c06565b506001151581151514610ce9576040517f08c379a0000000000000000000000000000000000000000000000000000000008152600401610ce090611c71565b60405180910390fd5b60008060005b6001600680549050610d019190611ea1565b811015610d62578460068281548110610d1d57610d1c611b47565b5b9060005260206000209060060201600301541415610d415760019250809150610d62565b8180610d4c90611ba5565b9250508080610d5a90611ba5565b915050610cef565b506001151582151514610daa576040517f08c379a0000000000000000000000000000000000000000000000000000000008152600401610da190612009565b60405180910390fd5b60068181548110610dbe57610dbd611b47565b5b906000526020600020906006020160000160009054906101000a900473ffffffffffffffffffffffffffffffffffffffff1673ffffffffffffffffffffffffffffffffffffffff163373ffffffffffffffffffffffffffffffffffffffff1614610e5d576040517f08c379a0000000000000000000000000000000000000000000000000000000008152600401610e5490612075565b60405180910390fd5b50505050565b600047905090565b6000805b600180549050811015610f0a573373ffffffffffffffffffffffffffffffffffffffff1660018281548110610ea757610ea6611b47565b5b9060005260206000200160009054906101000a900473ffffffffffffffffffffffffffffffffffffffff1673ffffffffffffffffffffffffffffffffffffffff161415610ef75760019150610f0a565b8080610f0290611ba5565b915050610e6f565b506001151581151514610f52576040517f08c379a0000000000000000000000000000000000000000000000000000000008152600401610f4990611c71565b60405180910390fd5b60008080600090505b600180549050811015610ff9578473ffffffffffffffffffffffffffffffffffffffff1660018281548110610f9357610f92611b47565b5b9060005260206000200160009054906101000a900473ffffffffffffffffffffffffffffffffffffffff1673ffffffffffffffffffffffffffffffffffffffff161415610fe65760019250809150610ff9565b8080610ff190611ba5565b915050610f5b565b506001151582151514611041576040517f08c379a0000000000000000000000000000000000000000000000000000000008152600401611038906120e1565b60405180910390fd5b60018080805490506110539190611ea1565b8154811061106457611063611b47565b5b9060005260206000200160009054906101000a900473ffffffffffffffffffffffffffffffffffffffff16600182815481106110a3576110a2611b47565b5b9060005260206000200160006101000a81548173ffffffffffffffffffffffffffffffffffffffff021916908373ffffffffffffffffffffffffffffffffffffffff16021790555060018054806110fd576110fc612101565b5b6001900381819060005260206000200160006101000a81549073ffffffffffffffffffffffffffffffffffffffff021916905590557fb2fc7bd05555890bb159a1291438a5bfc02a5051e052be42ba90c859f1c4817433854260405161116593929190612130565b60405180910390a150505050565b606060018054806020026020016040519081016040528092919081815260200182805480156111f757602002820191906000526020600020905b8160009054906101000a900473ffffffffffffffffffffffffffffffffffffffff1673ffffffffffffffffffffffffffffffffffffffff16815260200190600101908083116111ad575b5050505050905090565b6000805b6001805490508110156112a0573373ffffffffffffffffffffffffffffffffffffffff166001828154811061123d5761123c611b47565b5b9060005260206000200160009054906101000a900473ffffffffffffffffffffffffffffffffffffffff1673ffffffffffffffffffffffffffffffffffffffff16141561128d57600191506112a0565b808061129890611ba5565b915050611205565b5060011515811515146112e8576040517f08c379a00000000000000000000000000000000000000000000000000000000081526004016112df90611c71565b60405180910390fd5b8134101561132b576040517f08c379a0000000000000000000000000000000000000000000000000000000008152600401611322906121d9565b60405180910390fd5b6000821161136e576040517f08c379a00000000000000000000000000000000000000000000000000000000081526004016113659061226b565b60405180910390fd5b662386f26fc10000341161138157600080fd5b60008054906101000a900473ffffffffffffffffffffffffffffffffffffffff1673ffffffffffffffffffffffffffffffffffffffff163373ffffffffffffffffffffffffffffffffffffffff161461140f576040517f08c379a0000000000000000000000000000000000000000000000000000000008152600401611406906122d7565b60405180910390fd5b34600460003373ffffffffffffffffffffffffffffffffffffffff1673ffffffffffffffffffffffffffffffffffffffff168152602001908152602001600020541015611491576040517f08c379a000000000000000000000000000000000000000000000000000000000815260040161148890611d49565b60405180910390fd5b34600460003373ffffffffffffffffffffffffffffffffffffffff1673ffffffffffffffffffffffffffffffffffffffff168152602001908152602001600020819055507fb66661433873fff328d8a2f5b7e257d68f7861f4b0d1677c55a796caa6c22abe33344260405161150893929190611ed5565b60405180910390a15050565b6007818154811061152457600080fd5b906000526020600020016000915090508060000160009054906101000a900473ffffffffffffffffffffffffffffffffffffffff16908060000160149054906101000a900460ff16905082565b6000600560008473ffffffffffffffffffffffffffffffffffffffff1673ffffffffffffffffffffffffffffffffffffffff16815260200190815260200160002060008373ffffffffffffffffffffffffffffffffffffffff1673ffffffffffffffffffffffffffffffffffffffff16815260200190815260200160002054905092915050565b60088060000160009054906101000a900473ffffffffffffffffffffffffffffffffffffffff16908060000160149054906101000a900460ff16905082565b60008073ffffffffffffffffffffffffffffffffffffffff168473ffffffffffffffffffffffffffffffffffffffff1614156116a8576040517f08c379a000000000000000000000000000000000000000000000000000000000815260040161169f90612369565b60405180910390fd5b600073ffffffffffffffffffffffffffffffffffffffff168373ffffffffffffffffffffffffffffffffffffffff161415611718576040517f08c379a000000000000000000000000000000000000000000000000000000000815260040161170f906123fb565b60405180910390fd5b81600560008673ffffffffffffffffffffffffffffffffffffffff1673ffffffffffffffffffffffffffffffffffffffff16815260200190815260200160002060008573ffffffffffffffffffffffffffffffffffffffff1673ffffffffffffffffffffffffffffffffffffffff168152602001908152602001600020819055508273ffffffffffffffffffffffffffffffffffffffff168473ffffffffffffffffffffffffffffffffffffffff167f8c5be1e5ebec7d5bd14f71427d1e84f3dd0314c0f7b2291e5b200ac8c7c3b925846040516117f6919061191e565b60405180910390a3600190509392505050565b600080fd5b600073ffffffffffffffffffffffffffffffffffffffff82169050919050565b60006118398261180e565b9050919050565b6118498161182e565b811461185457600080fd5b50565b60008135905061186681611840565b92915050565b6000819050919050565b61187f8161186c565b811461188a57600080fd5b50565b60008135905061189c81611876565b92915050565b600080604083850312156118b9576118b8611809565b5b60006118c785828601611857565b92505060206118d88582860161188d565b9150509250929050565b6000602082840312156118f8576118f7611809565b5b60006119068482850161188d565b91505092915050565b6119188161186c565b82525050565b6000602082019050611933600083018461190f565b92915050565b60006020828403121561194f5761194e611809565b5b600061195d84828501611857565b91505092915050565b600081519050919050565b600082825260208201905092915050565b6000819050602082019050919050565b61199b8161182e565b82525050565b60006119ad8383611992565b60208301905092915050565b6000602082019050919050565b60006119d182611966565b6119db8185611971565b93506119e683611982565b8060005b83811015611a175781516119fe88826119a1565b9750611a09836119b9565b9250506001810190506119ea565b5085935050505092915050565b60006020820190508181036000830152611a3e81846119c6565b905092915050565b611a4f8161182e565b82525050565b60008115159050919050565b611a6a81611a55565b82525050565b6000604082019050611a856000830185611a46565b611a926020830184611a61565b9392505050565b60008060408385031215611ab057611aaf611809565b5b6000611abe85828601611857565b9250506020611acf85828601611857565b9150509250929050565b600080600060608486031215611af257611af1611809565b5b6000611b0086828701611857565b9350506020611b1186828701611857565b9250506040611b228682870161188d565b9150509250925092565b6000602082019050611b416000830184611a61565b92915050565b7f4e487b7100000000000000000000000000000000000000000000000000000000600052603260045260246000fd5b7f4e487b7100000000000000000000000000000000000000000000000000000000600052601160045260246000fd5b6000611bb08261186c565b91507fffffffffffffffffffffffffffffffffffffffffffffffffffffffffffffffff821415611be357611be2611b76565b5b600182019050919050565b600082825260208201905092915050565b7f6f6e6c792077616c6c6574206f776e6572732063616c6c20746869732066756e60008201527f6374696f6e000000000000000000000000000000000000000000000000000000602082015250565b6000611c5b602583611bee565b9150611c6682611bff565b604082019050919050565b60006020820190508181036000830152611c8a81611c4e565b9050919050565b7f6e6f206672617564000000000000000000000000000000000000000000000000600082015250565b6000611cc7600883611bee565b9150611cd282611c91565b602082019050919050565b60006020820190508181036000830152611cf681611cba565b9050919050565b7f696e73756666696369656e742062616c616e6365000000000000000000000000600082015250565b6000611d33601483611bee565b9150611d3e82611cfd565b602082019050919050565b60006020820190508181036000830152611d6281611d26565b9050919050565b6000819050919050565b6000819050919050565b6000611d98611d93611d8e84611d69565b611d73565b61186c565b9050919050565b611da881611d7d565b82525050565b600060c082019050611dc36000830189611a46565b611dd06020830188611a46565b611ddd604083018761190f565b611dea606083018661190f565b611df76080830185611d9f565b611e0460a083018461190f565b979650505050505050565b7f776974686472617720616d6f756e74206d75737420626520677265617465722060008201527f7468616e20300000000000000000000000000000000000000000000000000000602082015250565b6000611e6b602683611bee565b9150611e7682611e0f565b604082019050919050565b60006020820190508181036000830152611e9a81611e5e565b9050919050565b6000611eac8261186c565b9150611eb78361186c565b925082821015611eca57611ec9611b76565b5b828203905092915050565b6000606082019050611eea6000830186611a46565b611ef7602083018561190f565b611f04604083018461190f565b949350505050565b7f63616e6e6f7420616464206475706c6963617465206f776e6572000000000000600082015250565b6000611f42601a83611bee565b9150611f4d82611f0c565b602082019050919050565b60006020820190508181036000830152611f7181611f35565b9050919050565b6000608082019050611f8d6000830187611a46565b611f9a6020830186611a46565b611fa7604083018561190f565b611fb4606083018461190f565b95945050505050565b7f7472616e73666572206e6f7420666f756e640000000000000000000000000000600082015250565b6000611ff3601283611bee565b9150611ffe82611fbd565b602082019050919050565b6000602082019050818103600083015261202281611fe6565b9050919050565b7f6f6e6c792073656e6465722063616e2063616e63656c207472616e7366657200600082015250565b600061205f601f83611bee565b915061206a82612029565b602082019050919050565b6000602082019050818103600083015261208e81612052565b9050919050565b7f206f776e6572206e6f7420646574656374656400000000000000000000000000600082015250565b60006120cb601383611bee565b91506120d682612095565b602082019050919050565b600060208201905081810360008301526120fa816120be565b9050919050565b7f4e487b7100000000000000000000000000000000000000000000000000000000600052603160045260246000fd5b60006060820190506121456000830186611a46565b6121526020830185611a46565b61215f604083018461190f565b949350505050565b7f6465706f73697420616d6f756e74206d7573742062652067726561746572207460008201527f68616e206f7220657175616c20746f2074686520616d6f756e74000000000000602082015250565b60006121c3603a83611bee565b91506121ce82612167565b604082019050919050565b600060208201905081810360008301526121f2816121b6565b9050919050565b7f6465706f73697420616d6f756e74206d7573742062652067726561746572207460008201527f68616e2030000000000000000000000000000000000000000000000000000000602082015250565b6000612255602583611bee565b9150612260826121f9565b604082019050919050565b6000602082019050818103600083015261228481612248565b9050919050565b7f6f6e6c79206d61696e206f776e65722063616e206465706f7369740000000000600082015250565b60006122c1601b83611bee565b91506122cc8261228b565b602082019050919050565b600060208201905081810360008301526122f0816122b4565b9050919050565b7f45524332303a20617070726f76652066726f6d20746865207a65726f2061646460008201527f7265737300000000000000000000000000000000000000000000000000000000602082015250565b6000612353602483611bee565b915061235e826122f7565b604082019050919050565b6000602082019050818103600083015261238281612346565b9050919050565b7f45524332303a20617070726f766520746f20746865207a65726f20616464726560008201527f7373000000000000000000000000000000000000000000000000000000000000602082015250565b60006123e5602283611bee565b91506123f082612389565b604082019050919050565b60006020820190508181036000830152612414816123d8565b905091905056fea264697066735822122006f61cb2d0ee03d47a4c1284617df67b21ff14da7e9def225fe62c3c3857e93864736f6c634300080b0033",
  "immutableReferences": {},
  "source": "// SPDX-License-Identifier: MIT\n// import 'https://github.com/OpenZeppelin/openzeppelin-contracts/blob/master/contracts/token/ERC20/ERC20.sol';\n// import \"../contracts/IERC20.sol\";\n\npragma solidity >=0.7.22 <0.9.0;\n\n// contract MultiSig  {\n//   address private _owner;\n//   constructor(address owner)  {\n//     _owner = owner;\n//   }\n// }\n// pragma solidity ^0.8.1;\n\ncontract multisig {\n\n    // requirement for multi-sig wallet\n    address private mainOwner;\n    address[] walletOwners;\n\n    uint transferId = 0;\n\n    uint balances;\n    mapping(address => uint) balance;\n\n    struct Transaction{\n        address sender;\n        address receiver;\n        uint amount;\n        uint transferId;\n        uint approvalCount;\n        uint approval_TransactionTime;\n    }\n\n    \n    mapping (address => mapping (address => uint256)) private _allowances;\n    Transaction[] transaction_request;\n  \n    event wallet_ownerAdded(address addedyBy, address newOwner, uint approvalCount,uint index);\n    event wallet_ownerRemoved(address removedBy, address owner_removed, uint index);\n    event funds_deposited(address from, uint amount, uint index);\n    event funds_withdrawd(address from, uint amount, uint index);\n    event tranfer_created(address sender,address receiver,uint amount, uint id, uint approval,uint timestamp);\n    event Approval(address indexed owner, address indexed spender, uint256 value);\n\n    // Creating to use while deployement\n    struct DepData{\n        address owner;\n        bool create;\n    }\n    // now we can use this to create public account from another contract\n    DepData[] public newAccounts;\n    // \n    DepData public devData;\n\n\n    constructor() {\n      devData = DepData(mainOwner, true);\n      newAccounts.push(devData); \n        // mainOwner = msg.sender;\n        walletOwners.push(msg.sender);\n        } \n\n    modifier onlyOwner() {\n         bool Owner = false;\n        for (uint i =0; i < walletOwners.length; i++) {\n            if (walletOwners[i] == msg.sender) {\n                Owner = true;\n                break;\n            }\n        }\n        require(Owner == true, 'only wallet owners call this function');\n        _;\n    }\n\n    function allowance(address owner, address spender) public view returns (uint256) {\n        return _allowances[owner][spender];\n    }\n    function addOwner(address owner,uint approvalCount) public onlyOwner{    \n        for (uint i =0; i < walletOwners.length; i++) {\n            if (walletOwners[i] == owner) {\n                revert('cannot add duplicate owner');\n            }\n        }\n        walletOwners.push(owner);\n        emit wallet_ownerAdded(msg.sender, owner,approvalCount, walletOwners.length - 1);\n    }\n    function delOwner(address owner) public onlyOwner {\n        bool alreadyDeleted = false;\n        uint ownerIndex;\n        for (uint i =0; i < walletOwners.length; i++) {\n            if (walletOwners[i] == owner) {\n                alreadyDeleted = true;\n                ownerIndex = i;\n                break;\n            }\n        }\n        require(alreadyDeleted == true, ' owner not detected');\n        walletOwners[ownerIndex] = walletOwners[walletOwners.length - 1];\n        walletOwners.pop();\n        emit wallet_ownerRemoved(msg.sender, owner, block.timestamp);\n    }\n    function deposit(uint amount) public payable onlyOwner{\n        require(msg.value >= amount, 'deposit amount must be greater than or equal to the amount');\n        require(amount > 0, 'deposit amount must be greater than 0');\n        require(msg.value > .01 ether);\n        require(msg.sender == mainOwner, 'only main owner can deposit');\n        require(balance[msg.sender] >= msg.value, 'insufficient balance');\n        balance[msg.sender] = msg.value;\n        emit funds_deposited(msg.sender, msg.value, block.timestamp);\n    }\n    function withdraw(uint amount) public onlyOwner{\n        require(amount > 0, 'withdraw amount must be greater than 0');\n        require(balance[msg.sender] >= 0, 'insufficient balance');\n        balance[msg.sender] = balance[msg.sender] - amount;\n        payable(msg.sender).transfer(amount);\n        emit funds_withdrawd(msg.sender, amount, block.timestamp);\n    }\n    function createTransaction(address receiver, uint amount) public onlyOwner{\n        require(msg.sender != receiver, 'no fraud');\n        require(balance[msg.sender] >= amount, 'insufficient balance');\n        // Transaction.push(transfer(msg.sender, receiver, amount , ))\n        transaction_request.push(Transaction(msg.sender, receiver, amount, transferId, 0, block.timestamp)); \n        transferId++;\n\n        emit tranfer_created(msg.sender, receiver, amount, transferId, 0, block.timestamp);\n    }\n    function getbalance() public view returns (uint){\n        return balance[msg.sender];\n    }\n\n    function approve(address owner, address spender, uint256 amount) public returns (bool) {\n        require(owner != address(0), \"ERC20: approve from the zero address\");\n        require(spender != address(0), \"ERC20: approve to the zero address\");\n\n        _allowances[owner][spender] = amount;\n        emit Approval(owner, spender, amount);\n        return true;\n    }\n    function cancelTransfer(uint id) public view onlyOwner{\n        bool hasbeenfound = false;\n        uint transferindex =  0;\n        for(uint i = 0; i < transaction_request.length - 1; i++){\n            if(transaction_request[i].transferId == id){\n                hasbeenfound = true;\n                transferindex = i;\n                break;\n            }\n            transferindex++;\n        }\n        require(hasbeenfound == true, 'transfer not found');\n        require(msg.sender == transaction_request[transferindex].sender, 'only sender can cancel transfer');\n    }\n\n    function getWalletOwner( ) public view returns (address[] memory) {\n        return walletOwners;\n    }\n    function getContractBalance() public view returns (uint){\n        return address(this).balance;\n    }\n    \n}\n\n",
  "sourcePath": "/Users/vikashpathak/works/projects/FulStackMulti-Sig/contracts/MultiSig.sol",
  "compiler": {
    "name": "solc",
    "version": "0.8.11+commit.d7f03943.Emscripten.clang"
  },
  "schemaVersion": "3.4.5",
  "updatedAt": "2022-04-01T19:19:18.454Z",
  "networkType": "ethereum",
  "devdoc": {
    "kind": "dev",
    "methods": {},
    "version": 1
  },
  "userdoc": {
    "kind": "user",
    "methods": {},
    "version": 1
  }
}